{
    "contractName": "Movie",
    "abi": [
        {
            "inputs": [],
            "stateMutability": "nonpayable",
            "type": "constructor"
        },
        {
            "inputs": [
                {
                    "internalType": "address",
                    "name": "sender",
                    "type": "address"
                },
                {
                    "internalType": "uint256",
                    "name": "tokenId",
                    "type": "uint256"
                },
                {
                    "internalType": "address",
                    "name": "owner",
                    "type": "address"
                }
            ],
            "name": "ERC721IncorrectOwner",
            "type": "error"
        },
        {
            "inputs": [
                {
                    "internalType": "address",
                    "name": "operator",
                    "type": "address"
                },
                {
                    "internalType": "uint256",
                    "name": "tokenId",
                    "type": "uint256"
                }
            ],
            "name": "ERC721InsufficientApproval",
            "type": "error"
        },
        {
            "inputs": [
                {
                    "internalType": "address",
                    "name": "approver",
                    "type": "address"
                }
            ],
            "name": "ERC721InvalidApprover",
            "type": "error"
        },
        {
            "inputs": [
                {
                    "internalType": "address",
                    "name": "operator",
                    "type": "address"
                }
            ],
            "name": "ERC721InvalidOperator",
            "type": "error"
        },
        {
            "inputs": [
                {
                    "internalType": "address",
                    "name": "owner",
                    "type": "address"
                }
            ],
            "name": "ERC721InvalidOwner",
            "type": "error"
        },
        {
            "inputs": [
                {
                    "internalType": "address",
                    "name": "receiver",
                    "type": "address"
                }
            ],
            "name": "ERC721InvalidReceiver",
            "type": "error"
        },
        {
            "inputs": [
                {
                    "internalType": "address",
                    "name": "sender",
                    "type": "address"
                }
            ],
            "name": "ERC721InvalidSender",
            "type": "error"
        },
        {
            "inputs": [
                {
                    "internalType": "uint256",
                    "name": "tokenId",
                    "type": "uint256"
                }
            ],
            "name": "ERC721NonexistentToken",
            "type": "error"
        },
        {
            "inputs": [
                {
                    "internalType": "address",
                    "name": "owner",
                    "type": "address"
                }
            ],
            "name": "OwnableInvalidOwner",
            "type": "error"
        },
        {
            "inputs": [
                {
                    "internalType": "address",
                    "name": "account",
                    "type": "address"
                }
            ],
            "name": "OwnableUnauthorizedAccount",
            "type": "error"
        },
        {
            "anonymous": false,
            "inputs": [
                {
                    "indexed": true,
                    "internalType": "address",
                    "name": "owner",
                    "type": "address"
                },
                {
                    "indexed": true,
                    "internalType": "address",
                    "name": "approved",
                    "type": "address"
                },
                {
                    "indexed": true,
                    "internalType": "uint256",
                    "name": "tokenId",
                    "type": "uint256"
                }
            ],
            "name": "Approval",
            "type": "event"
        },
        {
            "anonymous": false,
            "inputs": [
                {
                    "indexed": true,
                    "internalType": "address",
                    "name": "owner",
                    "type": "address"
                },
                {
                    "indexed": true,
                    "internalType": "address",
                    "name": "operator",
                    "type": "address"
                },
                {
                    "indexed": false,
                    "internalType": "bool",
                    "name": "approved",
                    "type": "bool"
                }
            ],
            "name": "ApprovalForAll",
            "type": "event"
        },
        {
            "anonymous": false,
            "inputs": [
                {
                    "indexed": true,
                    "internalType": "uint256",
                    "name": "tokenId",
                    "type": "uint256"
                },
                {
                    "indexed": true,
                    "internalType": "address",
                    "name": "to",
                    "type": "address"
                },
                {
                    "indexed": false,
                    "internalType": "string",
                    "name": "name",
                    "type": "string"
                },
                {
                    "indexed": false,
                    "internalType": "string",
                    "name": "date",
                    "type": "string"
                }
            ],
            "name": "MovieMinted",
            "type": "event"
        },
        {
            "anonymous": false,
            "inputs": [
                {
                    "indexed": true,
                    "internalType": "address",
                    "name": "previousOwner",
                    "type": "address"
                },
                {
                    "indexed": true,
                    "internalType": "address",
                    "name": "newOwner",
                    "type": "address"
                }
            ],
            "name": "OwnershipTransferred",
            "type": "event"
        },
        {
            "anonymous": false,
            "inputs": [
                {
                    "indexed": true,
                    "internalType": "address",
                    "name": "from",
                    "type": "address"
                },
                {
                    "indexed": true,
                    "internalType": "address",
                    "name": "to",
                    "type": "address"
                },
                {
                    "indexed": true,
                    "internalType": "uint256",
                    "name": "tokenId",
                    "type": "uint256"
                }
            ],
            "name": "Transfer",
            "type": "event"
        },
        {
            "inputs": [
                {
                    "internalType": "address",
                    "name": "to",
                    "type": "address"
                },
                {
                    "internalType": "uint256",
                    "name": "tokenId",
                    "type": "uint256"
                }
            ],
            "name": "approve",
            "outputs": [],
            "stateMutability": "nonpayable",
            "type": "function"
        },
        {
            "inputs": [
                {
                    "internalType": "address",
                    "name": "owner",
                    "type": "address"
                }
            ],
            "name": "balanceOf",
            "outputs": [
                {
                    "internalType": "uint256",
                    "name": "",
                    "type": "uint256"
                }
            ],
            "stateMutability": "view",
            "type": "function"
        },
        {
            "inputs": [
                {
                    "internalType": "uint256",
                    "name": "tokenId",
                    "type": "uint256"
                }
            ],
            "name": "burnMovieNFT",
            "outputs": [],
            "stateMutability": "nonpayable",
            "type": "function"
        },
        {
            "inputs": [
                {
                    "internalType": "uint256",
                    "name": "tokenId",
                    "type": "uint256"
                }
            ],
            "name": "checkMovieIdExist",
            "outputs": [
                {
                    "internalType": "bool",
                    "name": "",
                    "type": "bool"
                }
            ],
            "stateMutability": "view",
            "type": "function"
        },
        {
            "inputs": [
                {
                    "internalType": "uint256",
                    "name": "tokenId",
                    "type": "uint256"
                }
            ],
            "name": "getApproved",
            "outputs": [
                {
                    "internalType": "address",
                    "name": "",
                    "type": "address"
                }
            ],
            "stateMutability": "view",
            "type": "function"
        },
        {
            "inputs": [
                {
                    "internalType": "uint256",
                    "name": "tokenId",
                    "type": "uint256"
                }
            ],
            "name": "getMovie",
            "outputs": [
                {
                    "internalType": "string",
                    "name": "",
                    "type": "string"
                },
                {
                    "internalType": "string",
                    "name": "",
                    "type": "string"
                },
                {
                    "internalType": "string[]",
                    "name": "",
                    "type": "string[]"
                }
            ],
            "stateMutability": "view",
            "type": "function"
        },
        {
            "inputs": [
                {
                    "internalType": "uint256",
                    "name": "tokenId",
                    "type": "uint256"
                }
            ],
            "name": "getMovieOwner",
            "outputs": [
                {
                    "internalType": "address",
                    "name": "",
                    "type": "address"
                }
            ],
            "stateMutability": "view",
            "type": "function"
        },
        {
            "inputs": [
                {
                    "internalType": "address",
                    "name": "owner",
                    "type": "address"
                },
                {
                    "internalType": "address",
                    "name": "operator",
                    "type": "address"
                }
            ],
            "name": "isApprovedForAll",
            "outputs": [
                {
                    "internalType": "bool",
                    "name": "",
                    "type": "bool"
                }
            ],
            "stateMutability": "view",
            "type": "function"
        },
        {
            "inputs": [
                {
                    "internalType": "address",
                    "name": "to",
                    "type": "address"
                },
                {
                    "internalType": "string",
                    "name": "name",
                    "type": "string"
                },
                {
                    "internalType": "string",
                    "name": "date",
                    "type": "string"
                },
                {
                    "internalType": "string[]",
                    "name": "pics",
                    "type": "string[]"
                }
            ],
            "name": "mint",
            "outputs": [],
            "stateMutability": "nonpayable",
            "type": "function"
        },
        {
            "inputs": [],
            "name": "name",
            "outputs": [
                {
                    "internalType": "string",
                    "name": "",
                    "type": "string"
                }
            ],
            "stateMutability": "view",
            "type": "function"
        },
        {
            "inputs": [],
            "name": "owner",
            "outputs": [
                {
                    "internalType": "address",
                    "name": "",
                    "type": "address"
                }
            ],
            "stateMutability": "view",
            "type": "function"
        },
        {
            "inputs": [
                {
                    "internalType": "uint256",
                    "name": "tokenId",
                    "type": "uint256"
                }
            ],
            "name": "ownerOf",
            "outputs": [
                {
                    "internalType": "address",
                    "name": "",
                    "type": "address"
                }
            ],
            "stateMutability": "view",
            "type": "function"
        },
        {
            "inputs": [],
            "name": "renounceOwnership",
            "outputs": [],
            "stateMutability": "nonpayable",
            "type": "function"
        },
        {
            "inputs": [
                {
                    "internalType": "address",
                    "name": "from",
                    "type": "address"
                },
                {
                    "internalType": "address",
                    "name": "to",
                    "type": "address"
                },
                {
                    "internalType": "uint256",
                    "name": "tokenId",
                    "type": "uint256"
                }
            ],
            "name": "safeTransferFrom",
            "outputs": [],
            "stateMutability": "nonpayable",
            "type": "function"
        },
        {
            "inputs": [
                {
                    "internalType": "address",
                    "name": "from",
                    "type": "address"
                },
                {
                    "internalType": "address",
                    "name": "to",
                    "type": "address"
                },
                {
                    "internalType": "uint256",
                    "name": "tokenId",
                    "type": "uint256"
                },
                {
                    "internalType": "bytes",
                    "name": "data",
                    "type": "bytes"
                }
            ],
            "name": "safeTransferFrom",
            "outputs": [],
            "stateMutability": "nonpayable",
            "type": "function"
        },
        {
            "inputs": [
                {
                    "internalType": "address",
                    "name": "operator",
                    "type": "address"
                },
                {
                    "internalType": "bool",
                    "name": "approved",
                    "type": "bool"
                }
            ],
            "name": "setApprovalForAll",
            "outputs": [],
            "stateMutability": "nonpayable",
            "type": "function"
        },
        {
            "inputs": [
                {
                    "internalType": "bytes4",
                    "name": "interfaceId",
                    "type": "bytes4"
                }
            ],
            "name": "supportsInterface",
            "outputs": [
                {
                    "internalType": "bool",
                    "name": "",
                    "type": "bool"
                }
            ],
            "stateMutability": "view",
            "type": "function"
        },
        {
            "inputs": [],
            "name": "symbol",
            "outputs": [
                {
                    "internalType": "string",
                    "name": "",
                    "type": "string"
                }
            ],
            "stateMutability": "view",
            "type": "function"
        },
        {
            "inputs": [
                {
                    "internalType": "string",
                    "name": "str",
                    "type": "string"
                }
            ],
            "name": "test",
            "outputs": [
                {
                    "internalType": "string",
                    "name": "",
                    "type": "string"
                }
            ],
            "stateMutability": "pure",
            "type": "function"
        },
        {
            "inputs": [
                {
                    "internalType": "uint256",
                    "name": "tokenId",
                    "type": "uint256"
                }
            ],
            "name": "tokenURI",
            "outputs": [
                {
                    "internalType": "string",
                    "name": "",
                    "type": "string"
                }
            ],
            "stateMutability": "view",
            "type": "function"
        },
        {
            "inputs": [
                {
                    "internalType": "address",
                    "name": "from",
                    "type": "address"
                },
                {
                    "internalType": "address",
                    "name": "to",
                    "type": "address"
                },
                {
                    "internalType": "uint256",
                    "name": "tokenId",
                    "type": "uint256"
                }
            ],
            "name": "transferFrom",
            "outputs": [],
            "stateMutability": "nonpayable",
            "type": "function"
        },
        {
            "inputs": [
                {
                    "internalType": "address",
                    "name": "newOwner",
                    "type": "address"
                }
            ],
            "name": "transferOwnership",
            "outputs": [],
            "stateMutability": "nonpayable",
            "type": "function"
        }
    ],
    "bytecode": "60806040523461036f57604080519081016001600160401b038111828210176102855760409081526008825267135bdd9a5953919560c21b602083015280519081016001600160401b038111828210176102855760405260048152631353919560e21b602082015281516001600160401b038111610285575f54600181811c91168015610365575b602082101461026757601f8111610303575b50602092601f82116001146102a457928192935f92610299575b50508160011b915f199060031b1c1916175f555b80516001600160401b03811161028557600154600181811c9116801561027b575b602082101461026757601f8111610204575b50602091601f82116001146101a4579181925f92610199575b50508160011b915f199060031b1c1916176001555b33156101865760068054336001600160a01b03198216811790925560405191906001600160a01b03167f8be0079c531659141344cd1fd0a4f28419497f9722a3daafe3b4186f6b6457e05f80a3600160075561194e90816103748239f35b631e4fbdf760e01b5f525f60045260245ffd5b015190505f80610113565b601f1982169260015f52805f20915f5b8581106101ec575083600195106101d4575b505050811b01600155610128565b01515f1960f88460031b161c191690555f80806101c6565b919260206001819286850151815501940192016101b4565b60015f527fb10e2d527612073b26eecdfd717e6a320cf44b4afac2b0732d9fcbe2b7fa0cf6601f830160051c8101916020841061025d575b601f0160051c01905b81811061025257506100fa565b5f8155600101610245565b909150819061023c565b634e487b7160e01b5f52602260045260245ffd5b90607f16906100e8565b634e487b7160e01b5f52604160045260245ffd5b015190505f806100b3565b601f198216935f8052805f20915f5b8681106102eb57508360019596106102d3575b505050811b015f556100c7565b01515f1960f88460031b161c191690555f80806102c6565b919260206001819286850151815501940192016102b3565b5f80527f290decd9548b62a8d60345a988386fc84ba6bc95484008f6362f93160ef3e563601f830160051c8101916020841061035b575b601f0160051c01905b8181106103505750610099565b5f8155600101610343565b909150819061033a565b90607f1690610087565b5f80fdfe6080806040526004361015610012575f80fd5b5f905f3560e01c90816301ffc9a7146111db5750806306fdde0314611139578063081812fc146110fd578063095ea7b314611013578063179ffe7614610eab57806317e9afa41461076a57806323b872dd1461075357806342842e0e146107245780636352211e1461030557806370a08231146106d3578063715018a6146106785780638da5cb5b1461065057806395d89b41146105865780639a14377814610552578063a22cb465146104b7578063a4847bd414610335578063a5af161d14610305578063b88d4fde14610298578063c87b56dd1461023f578063e985e9c5146101e7578063f2fde38b1461015e5763f9fbd55414610110575f80fd5b3461015b57602036600319011261015b57600435906001600160401b03821161015b576101576101433660048501611308565b604051918291602083526020830190611246565b0390f35b80fd5b503461015b57602036600319011261015b5761017861126a565b610180611662565b6001600160a01b031680156101d357600680546001600160a01b0319811683179091556001600160a01b03167f8be0079c531659141344cd1fd0a4f28419497f9722a3daafe3b4186f6b6457e05f80a380f35b631e4fbdf760e01b82526004829052602482fd5b503461015b57604036600319011261015b57604061020361126a565b9161020c611280565b9260018060a01b031681526005602052209060018060a01b03165f52602052602060ff60405f2054166040519015158152f35b346102945760203660031901126102945761025b600435611640565b505f60405161026b602082611296565b5261015760405161027d602082611296565b5f8152604051918291602083526020830190611246565b5f80fd5b34610294576080366003190112610294576102b161126a565b6102b9611280565b90604435606435926001600160401b0384116102945736602385011215610294576102f16103039436906024816004013591016112d2565b926102fd8383836114b3565b33611689565b005b34610294576020366003190112610294576020610323600435611640565b6040516001600160a01b039091168152f35b346102945760203660031901126102945760043561035281611640565b336001600160a01b03909116036104735761036c81611853565b50805f526008602052600260405f2061038481611465565b61039060018201611465565b018054905f81558161044e575b50505f818152600260205260409020546001600160a01b0316801590811561041b575b5f83815260026020526040812080546001600160a01b03191690558390827fddf252ad1be2c89b69c2b068fc378daa952ba7f163c4a11628f55a4df523b3ef8280a45061040957005b637e27328960e01b5f5260045260245ffd5b5f83815260046020526040902080546001600160a01b0319169055805f52600360205260405f205f1981540190556103c0565b5f5260205f20908101905b8181101561039d578061046d600192611465565b01610459565b606460405162461bcd60e51b815260206004820152602060248201527f43616c6c6572206973206e6f74206f776e6572206e6f7220617070726f7665646044820152fd5b34610294576040366003190112610294576104d061126a565b60243590811515809203610294576001600160a01b031690811561053f57335f52600560205260405f20825f5260205260405f2060ff1981541660ff83161790556040519081527f17307eab39ab6107e8899845ad3d59bd9653f200f220920489ca2b5937696c3160203392a3005b50630b61174360e31b5f5260045260245ffd5b3461029457602036600319011261029457602061057c6004355f52600a60205260405f2054151590565b6040519015158152f35b34610294575f366003190112610294576040515f6001546105a681611377565b808452906001811690811561062c57506001146105ce575b6101578361014381850382611296565b60015f9081527fb10e2d527612073b26eecdfd717e6a320cf44b4afac2b0732d9fcbe2b7fa0cf6939250905b808210610612575090915081016020016101436105be565b9192600181602092548385880101520191019092916105fa565b60ff191660208086019190915291151560051b8401909101915061014390506105be565b34610294575f366003190112610294576006546040516001600160a01b039091168152602090f35b34610294575f36600319011261029457610690611662565b600680546001600160a01b031981169091555f906001600160a01b03167f8be0079c531659141344cd1fd0a4f28419497f9722a3daafe3b4186f6b6457e08280a3005b34610294576020366003190112610294576001600160a01b036106f461126a565b168015610711575f526003602052602060405f2054604051908152f35b6322718ad960e21b5f525f60045260245ffd5b34610294576103036107353661133d565b9060405192610745602085611296565b5f84526102fd8383836114b3565b34610294576103036107643661133d565b916114b3565b346102945760803660031901126102945761078361126a565b6024356001600160401b038111610294576107a2903690600401611308565b6044356001600160401b038111610294576107c1903690600401611308565b90606435916001600160401b03831161029457366023840112156102945782600401356107ed81611326565b936107fb6040519586611296565b8185526024602086019260051b820101903682116102945760248101925b828410610e7c575050505060075492604051606081018181106001600160401b03821117610cfb576040528381526020810183815260408201928352855f52600860205260405f2091518051906001600160401b038211610cfb5761087e8454611377565b601f8111610e4c575b50602090601f8311600114610de9576108b792915f9183610dde575b50508160011b915f199060031b1c19161790565b82555b51805160018301916001600160401b038211610cfb576108da8354611377565b601f8111610dae575b50602090601f8311600114610d475791806109179260029695945f92610d3c5750508160011b915f199060031b1c19161790565b90555b019051805190600160401b8211610cfb578254828455808310610d0f575b50602001915f5260205f20915f905b828210610be057505050506020916040516109628482611296565b5f81526001600160a01b038616958615610bcd575f8681526002865260409020546001600160a01b03168015159081610b9c575b885f526003875260405f2060018154019055875f526002875260405f20896bffffffffffffffffffffffff60a01b8254161790558789827fddf252ad1be2c89b69c2b068fc378daa952ba7f163c4a11628f55a4df523b3ef5f80a450610b895784903b610a7f575b5050610a09846117e8565b506007545f198114610a6b577f7b8b4fd72e78de297364c2479c11f99f63a8fc81a3a3a374475af81f8599a41693610a59936001610a669301600755604051948594604086526040860190611246565b9184830390850152611246565b0390a3005b634e487b7160e01b5f52601160045260245ffd5b610ab79160405180938192630a85bd0160e11b83523360048401525f6024840152896044840152608060648401526084830190611246565b03815f8a5af15f9181610b49575b50610b185785843d15610b11573d610adc816112b7565b90610aea6040519283611296565b81523d5f8383013e5b80519182610b0e5783633250574960e11b5f5260045260245ffd5b01fd5b6060610af3565b6001600160e01b03191663757a42ff60e11b01610b365785836109fe565b84633250574960e11b5f5260045260245ffd5b9091508481813d8311610b82575b610b618183611296565b8101031261029457516001600160e01b031981168103610294579087610ac5565b503d610b57565b6339e3563760e11b5f525f60045260245ffd5b5f8881526004602052604080822080546001600160a01b031916905582825260038952902080545f19019055610996565b633250574960e11b5f525f60045260245ffd5b80518051906001600160401b038211610cfb57610bfd8654611377565b601f8111610cc0575b50602090601f8311600114610c575792610c3d836001959460209487965f92610c4c5750508160011b915f199060031b1c19161790565b87555b01940191019092610947565b015190508e806108a3565b90601f19831691875f52815f20925f5b818110610ca85750936020936001969387969383889510610c90575b505050811b018755610c40565b01515f1960f88460031b161c191690558d8080610c83565b92936020600181928786015181550195019301610c67565b610ceb90875f5260205f20601f850160051c81019160208610610cf1575b601f0160051c019061144f565b8a610c06565b9091508190610cde565b634e487b7160e01b5f52604160045260245ffd5b835f528260205f2091820191015b818110610d2a5750610938565b80610d36600192611465565b01610d1d565b015190508b806108a3565b90601f19831691845f52815f20925f5b818110610d96575091600193918560029897969410610d7e575b505050811b01905561091a565b01515f1960f88460031b161c191690558a8080610d71565b92936020600181928786015181550195019301610d57565b610dd890845f5260205f20601f850160051c81019160208610610cf157601f0160051c019061144f565b896108e3565b015190508a806108a3565b90601f19831691855f52815f20925f5b818110610e345750908460019594939210610e1c575b505050811b0182556108ba565b01515f1960f88460031b161c19169055898080610e0f565b92936020600181928786015181550195019301610df9565b610e7690855f5260205f20601f850160051c81019160208610610cf157601f0160051c019061144f565b89610887565b83356001600160401b03811161029457602091610ea0839260243691870101611308565b815201930192610819565b3461029457602036600319011261029457600435610ed4815f52600a60205260405f2054151590565b15610fd7575f52600860205260405f2060028101610efd6001610ef6846113af565b93016113af565b815490610f0982611326565b91610f176040519384611296565b8083526020830180945f5260205f205f915b838310610fba57610f4e888888610f5c89604051958695606087526060870190611246565b908582036020870152611246565b90838203604085015251808252602082019160208260051b82010193925f915b838310610f895786860387f35b919395509193602080610fa8600193601f198682030187528951611246565b97019301930190928695949293610f7c565b600160208192610fc9856113af565b815201920192019190610f29565b60405162461bcd60e51b8152602060048201526014602482015273151bdad95b88191bd95cc81b9bdd08195e1a5cdd60621b6044820152606490fd5b346102945760403660031901126102945761102c61126a565b60243561103881611640565b331515806110ea575b806110bd575b6110aa5781906001600160a01b0384811691167f8c5be1e5ebec7d5bd14f71427d1e84f3dd0314c0f7b2291e5b200ac8c7c3b9255f80a45f90815260046020526040902080546001600160a01b0319166001600160a01b03909216919091179055005b63a9fbf51f60e01b5f523360045260245ffd5b506001600160a01b0381165f90815260056020908152604080832033845290915290205460ff1615611047565b506001600160a01b038116331415611041565b346102945760203660031901126102945760043561111a81611640565b505f526004602052602060018060a01b0360405f205416604051908152f35b34610294575f366003190112610294576040515f5f5461115881611377565b808452906001811690811561062c575060011461117f576101578361014381850382611296565b5f8080527f290decd9548b62a8d60345a988386fc84ba6bc95484008f6362f93160ef3e563939250905b8082106111c1575090915081016020016101436105be565b9192600181602092548385880101520191019092916111a9565b34610294576020366003190112610294576004359063ffffffff60e01b8216809203610294576020916380ac58cd60e01b8114908115611235575b8115611224575b5015158152f35b6301ffc9a760e01b1490508361121d565b635b5e139f60e01b81149150611216565b805180835260209291819084018484015e5f828201840152601f01601f1916010190565b600435906001600160a01b038216820361029457565b602435906001600160a01b038216820361029457565b90601f801991011681019081106001600160401b03821117610cfb57604052565b6001600160401b038111610cfb57601f01601f191660200190565b9291926112de826112b7565b916112ec6040519384611296565b829481845281830111610294578281602093845f960137010152565b9080601f8301121561029457816020611323933591016112d2565b90565b6001600160401b038111610cfb5760051b60200190565b6060906003190112610294576004356001600160a01b038116810361029457906024356001600160a01b0381168103610294579060443590565b90600182811c921680156113a5575b602083101461139157565b634e487b7160e01b5f52602260045260245ffd5b91607f1691611386565b9060405191825f8254926113c284611377565b808452936001811690811561142d57506001146113e9575b506113e792500383611296565b565b90505f9291925260205f20905f915b8183106114115750509060206113e7928201015f6113da565b60209193508060019154838589010152019101909184926113f8565b9050602092506113e794915060ff191682840152151560051b8201015f6113da565b81811061145a575050565b5f815560010161144f565b61146f8154611377565b9081611479575050565b81601f5f931160011461148a575055565b818352602083206114a691601f0160051c81019060010161144f565b8082528160208120915555565b6001600160a01b0390911691908215610bcd575f828152600260205260409020546001600160a01b0316928290331515806115ab575b5084611578575b805f52600360205260405f2060018154019055815f52600260205260405f20816bffffffffffffffffffffffff60a01b825416179055847fddf252ad1be2c89b69c2b068fc378daa952ba7f163c4a11628f55a4df523b3ef5f80a46001600160a01b031680830361156057505050565b6364283d7b60e01b5f5260045260245260445260645ffd5b5f82815260046020526040902080546001600160a01b0319169055845f52600360205260405f205f1981540190556114f0565b909150806115ef575b156115c15782905f6114e9565b82846115d957637e27328960e01b5f5260045260245ffd5b63177e802f60e01b5f523360045260245260445ffd5b50338414801561161e575b806115b457505f838152600460205260409020546001600160a01b031633146115b4565b505f84815260056020908152604080832033845290915290205460ff166115fa565b5f818152600260205260409020546001600160a01b0316908115610409575090565b6006546001600160a01b0316330361167657565b63118cdaa760e01b5f523360045260245ffd5b823b611697575b5050505050565b604051630a85bd0160e11b81526001600160a01b0391821660048201529181166024830152604482019390935260806064820152911691602090829081906116e3906084830190611246565b03815f865af15f918161177a575b5061174657503d1561173f573d611707816112b7565b906117156040519283611296565b81523d5f602083013e5b8051908161173a5782633250574960e11b5f5260045260245ffd5b602001fd5b606061171f565b6001600160e01b03191663757a42ff60e11b0161176857505f80808080611690565b633250574960e11b5f5260045260245ffd5b9091506020813d6020116117b7575b8161179660209383611296565b8101031261029457516001600160e01b03198116810361029457905f6116f1565b3d9150611789565b80548210156117d4575f5260205f2001905f90565b634e487b7160e01b5f52603260045260245ffd5b805f52600a60205260405f2054155f1461184e57600954600160401b811015610cfb5761183761182182600185940160095560096117bf565b819391549060031b91821b915f19901b19161790565b9055600954905f52600a60205260405f2055600190565b505f90565b5f818152600a60205260409020548015611912575f198101818111610a6b576009545f19810191908211610a6b578181036118da575b50505060095480156118c6575f19016118a38160096117bf565b8154905f199060031b1b191690556009555f52600a6020525f6040812055600190565b634e487b7160e01b5f52603160045260245ffd5b6118fc6118eb6118219360096117bf565b90549060031b1c92839260096117bf565b90555f52600a60205260405f20555f8080611889565b50505f9056fea2646970667358221220db89d97a0ed7169d0c36487ada12a7a35613281773f075e62d8ec5c392c054cd64736f6c634300081c0033",
    "sourcePath": "/Users/liurui/code/web3/web3_MovieRating/src/Movie.sol",
    "compiler": {
        "name": "solc",
        "version": "0.8.28+commit.7893614a"
    },
    "functionHashes": {
        "approve(address,uint256)": "095ea7b3",
        "balanceOf(address)": "70a08231",
        "burnMovieNFT(uint256)": "a4847bd4",
        "checkMovieIdExist(uint256)": "9a143778",
        "getApproved(uint256)": "081812fc",
        "getMovie(uint256)": "179ffe76",
        "getMovieOwner(uint256)": "a5af161d",
        "isApprovedForAll(address,address)": "e985e9c5",
        "mint(address,string,string,string[])": "17e9afa4",
        "name()": "06fdde03",
        "owner()": "8da5cb5b",
        "ownerOf(uint256)": "6352211e",
        "renounceOwnership()": "715018a6",
        "safeTransferFrom(address,address,uint256)": "42842e0e",
        "safeTransferFrom(address,address,uint256,bytes)": "b88d4fde",
        "setApprovalForAll(address,bool)": "a22cb465",
        "supportsInterface(bytes4)": "01ffc9a7",
        "symbol()": "95d89b41",
        "test(string)": "f9fbd554",
        "tokenURI(uint256)": "c87b56dd",
        "transferFrom(address,address,uint256)": "23b872dd",
        "transferOwnership(address)": "f2fde38b"
    },
    "gasEstimates": {
        "creation": {
            "codeDepositCost": "1295600",
            "executionCost": "infinite",
            "totalCost": "infinite"
        },
        "external": {
            "approve(address,uint256)": "31151",
            "balanceOf(address)": "2628",
            "burnMovieNFT(uint256)": "infinite",
            "checkMovieIdExist(uint256)": "2639",
            "getApproved(uint256)": "4630",
            "getMovie(uint256)": "infinite",
            "getMovieOwner(uint256)": "2775",
            "isApprovedForAll(address,address)": "3000",
            "mint(address,string,string,string[])": "infinite",
            "name()": "infinite",
            "owner()": "2527",
            "ownerOf(uint256)": "2599",
            "renounceOwnership()": "28285",
            "safeTransferFrom(address,address,uint256)": "infinite",
            "safeTransferFrom(address,address,uint256,bytes)": "infinite",
            "setApprovalForAll(address,bool)": "26735",
            "supportsInterface(bytes4)": "327",
            "symbol()": "infinite",
            "test(string)": "infinite",
            "tokenURI(uint256)": "infinite",
            "transferFrom(address,address,uint256)": "106394",
            "transferOwnership(address)": "28621"
        }
    }
}